{
  "_format": "hh-sol-artifact-1",
  "contractName": "GasConsumer",
  "sourceName": "contracts/GasWaster.sol",
  "abi": [
    {
      "inputs": [],
      "stateMutability": "payable",
      "type": "constructor"
    },
    {
      "anonymous": false,
      "inputs": [
        {
          "indexed": true,
          "internalType": "address",
          "name": "previousOwner",
          "type": "address"
        },
        {
          "indexed": true,
          "internalType": "address",
          "name": "newOwner",
          "type": "address"
        }
      ],
      "name": "OwnershipTransferred",
      "type": "event"
    },
    {
      "inputs": [
        {
          "internalType": "uint256",
          "name": "gasAmount",
          "type": "uint256"
        }
      ],
      "name": "go",
      "outputs": [
        {
          "internalType": "uint256",
          "name": "gasUsed",
          "type": "uint256"
        }
      ],
      "stateMutability": "payable",
      "type": "function"
    },
    {
      "inputs": [],
      "name": "isLocked",
      "outputs": [
        {
          "internalType": "bool",
          "name": "",
          "type": "bool"
        }
      ],
      "stateMutability": "view",
      "type": "function"
    },
    {
      "inputs": [],
      "name": "lock",
      "outputs": [],
      "stateMutability": "nonpayable",
      "type": "function"
    },
    {
      "inputs": [],
      "name": "owner",
      "outputs": [
        {
          "internalType": "address",
          "name": "",
          "type": "address"
        }
      ],
      "stateMutability": "view",
      "type": "function"
    },
    {
      "inputs": [],
      "name": "renounceOwnership",
      "outputs": [],
      "stateMutability": "nonpayable",
      "type": "function"
    },
    {
      "inputs": [
        {
          "internalType": "address",
          "name": "newOwner",
          "type": "address"
        }
      ],
      "name": "transferOwnership",
      "outputs": [],
      "stateMutability": "nonpayable",
      "type": "function"
    },
    {
      "inputs": [],
      "name": "unlock",
      "outputs": [],
      "stateMutability": "nonpayable",
      "type": "function"
    }
  ],
  "bytecode": "0x608060405261002061001561003f60201b60201c565b61004760201b60201c565b60008060146101000a81548160ff02191690831515021790555061010b565b600033905090565b60008060009054906101000a900473ffffffffffffffffffffffffffffffffffffffff169050816000806101000a81548173ffffffffffffffffffffffffffffffffffffffff021916908373ffffffffffffffffffffffffffffffffffffffff1602179055508173ffffffffffffffffffffffffffffffffffffffff168173ffffffffffffffffffffffffffffffffffffffff167f8be0079c531659141344cd1fd0a4f28419497f9722a3daafe3b4186f6b6457e060405160405180910390a35050565b6108cf8061011a6000396000f3fe6080604052600436106100705760003560e01c8063a69df4b51161004e578063a69df4b5146100e2578063b20e7344146100f9578063f2fde38b14610129578063f83d08ba1461015257610070565b8063715018a6146100755780638da5cb5b1461008c578063a4e2d634146100b7575b600080fd5b34801561008157600080fd5b5061008a610169565b005b34801561009857600080fd5b506100a161017d565b6040516100ae9190610513565b60405180910390f35b3480156100c357600080fd5b506100cc6101a6565b6040516100d99190610549565b60405180910390f35b3480156100ee57600080fd5b506100f76101b9565b005b610113600480360381019061010e919061059f565b610233565b60405161012091906105db565b60405180910390f35b34801561013557600080fd5b50610150600480360381019061014b9190610622565b610289565b005b34801561015e57600080fd5b5061016761030d565b005b610171610388565b61017b6000610406565b565b60008060009054906101000a900473ffffffffffffffffffffffffffffffffffffffff16905090565b600060149054906101000a900460ff1681565b6101c1610388565b60011515600060149054906101000a900460ff16151514610217576040517f08c379a000000000000000000000000000000000000000000000000000000000815260040161020e906106ac565b60405180910390fd5b60008060146101000a81548160ff021916908315150217905550565b6000801515600060149054906101000a900460ff1615151461025457600080fd5b60005a90505a8161026591906106fb565b91505b82821015610283575a8161027c91906106fb565b9150610268565b50919050565b610291610388565b600073ffffffffffffffffffffffffffffffffffffffff168173ffffffffffffffffffffffffffffffffffffffff161415610301576040517f08c379a00000000000000000000000000000000000000000000000000000000081526004016102f8906107a1565b60405180910390fd5b61030a81610406565b50565b610315610388565b60001515600060149054906101000a900460ff1615151461036b576040517f08c379a00000000000000000000000000000000000000000000000000000000081526004016103629061080d565b60405180910390fd5b6001600060146101000a81548160ff021916908315150217905550565b6103906104ca565b73ffffffffffffffffffffffffffffffffffffffff166103ae61017d565b73ffffffffffffffffffffffffffffffffffffffff1614610404576040517f08c379a00000000000000000000000000000000000000000000000000000000081526004016103fb90610879565b60405180910390fd5b565b60008060009054906101000a900473ffffffffffffffffffffffffffffffffffffffff169050816000806101000a81548173ffffffffffffffffffffffffffffffffffffffff021916908373ffffffffffffffffffffffffffffffffffffffff1602179055508173ffffffffffffffffffffffffffffffffffffffff168173ffffffffffffffffffffffffffffffffffffffff167f8be0079c531659141344cd1fd0a4f28419497f9722a3daafe3b4186f6b6457e060405160405180910390a35050565b600033905090565b600073ffffffffffffffffffffffffffffffffffffffff82169050919050565b60006104fd826104d2565b9050919050565b61050d816104f2565b82525050565b60006020820190506105286000830184610504565b92915050565b60008115159050919050565b6105438161052e565b82525050565b600060208201905061055e600083018461053a565b92915050565b600080fd5b6000819050919050565b61057c81610569565b811461058757600080fd5b50565b60008135905061059981610573565b92915050565b6000602082840312156105b5576105b4610564565b5b60006105c38482850161058a565b91505092915050565b6105d581610569565b82525050565b60006020820190506105f060008301846105cc565b92915050565b6105ff816104f2565b811461060a57600080fd5b50565b60008135905061061c816105f6565b92915050565b60006020828403121561063857610637610564565b5b60006106468482850161060d565b91505092915050565b600082825260208201905092915050565b7f636f6e747261637420616c726561647920756e6c6f636b656400000000000000600082015250565b600061069660198361064f565b91506106a182610660565b602082019050919050565b600060208201905081810360008301526106c581610689565b9050919050565b7f4e487b7100000000000000000000000000000000000000000000000000000000600052601160045260246000fd5b600061070682610569565b915061071183610569565b925082821015610724576107236106cc565b5b828203905092915050565b7f4f776e61626c653a206e6577206f776e657220697320746865207a65726f206160008201527f6464726573730000000000000000000000000000000000000000000000000000602082015250565b600061078b60268361064f565b91506107968261072f565b604082019050919050565b600060208201905081810360008301526107ba8161077e565b9050919050565b7f636f6e747261637420616c7265616479206c6f636b6564000000000000000000600082015250565b60006107f760178361064f565b9150610802826107c1565b602082019050919050565b60006020820190508181036000830152610826816107ea565b9050919050565b7f4f776e61626c653a2063616c6c6572206973206e6f7420746865206f776e6572600082015250565b600061086360208361064f565b915061086e8261082d565b602082019050919050565b6000602082019050818103600083015261089281610856565b905091905056fea2646970667358221220aec04a63eff197e8f6c1215bb9b388b23517f5262a6c7eb94085ba447cba533d64736f6c63430008090033",
  "linkReferences": {},
  "deployedLinkReferences": {}
}